:020000040800F2
:10000000F80C002001010008090100080B0100089C
:100010000D0100080F010008110100080000000098
:1000200000000000000000000000000013010008B4
:1000300015010008000000001701000861280008F1
:100040001B0100081B0100081B0100081B01000820
:100050001B0100081B0100081B0100081B01000810
:100060001B0100081B0100081B0100081B01000800
:100070001B0100081B0100081B0100081B010008F0
:100080001B0100081B0100081B0100081B010008E0
:10009000813C00081B0100081B0100081B0100082F
:1000A0001B0100081B0100081B0100081B010008C0
:1000B0001B0100081B0100081B0100081B010008B0
:1000C0001B0100081B0100081B0100081B010008A0
:1000D0001B0100081B0100081B0100081B01000890
:1000E0001B0100081B0100081B010008DFF80CD0F1
:1000F00000F02AF800480047453E0008F80C0020B0
:100100000648804706480047FEE7FEE7FEE7FEE7B1
:10011000FEE7FEE7FEE7FEE7FEE7FEE7E128000870
:10012000ED00000840EA01039B0703D009E008C97D
:10013000121F08C0042AFAD203E011F8013B00F8AC
:10014000013B521EF9D27047064C074D06E0E068AD
:1001500040F0010394E8070098471034AC42F6D30E
:10016000FFF7C8FF244100084441000810B54FF4D0
:10017000D872036802EB01129B5813F00404436B1E
:100180009C600468436BA45856D0E4085C60036824
:100190009A58436B02F00202DA604FF4DA72036895
:1001A00002EB01129B58446B03F00F0323610368B9
:1001B0009A58436BC2F30722DA614FF4DC7203688A
:1001C00002EB01129B58446B237503689B58446BE8
:1001D0001B0A637503689B58446B1B0CA37503686B
:1001E0009A58436B120EDA754FF4DE72036802EB15
:1001F00001129B58446B237603689B58446B1B0A7F
:10020000637603689B58446B1B0CA37603689A586B
:10021000436B120E0029DA76016810D00A6942F0A9
:1002200020020A6101684A6922F010024A6190F8CE
:10023000391022290CD010E0640D1C60A7E7CA68B1
:1002400042F02002CA6001684A6922F00202EDE72A
:1002500001684A6922F40F424A6190F83910322944
:1002600006D0012180F8391000F0A4F9002010BD5B
:100270001221F7E700207047034902480860002078
:1002800070470000740500206800002000207047BF
:100290007047000070B50168044648694FF00105D9
:1002A000C043C00722D18A685B48904307D08A6860
:1002B0005A48904303D08A685948904316D14A69F6
:1002C000204622F001024A6194F83910122904D123
:1002D00001684A6922F40F424A6190F839103229C4
:1002E00022D080F8395000BF00F065F920684169DC
:1002F000C943890706D4C068800703D0002120467F
:10030000FFF734FF20684169C943C90606D4006974
:10031000800703D001212046FFF728FF206881696C
:10032000C943C90704D00FE0222180F83910DBE768
:100330004169C943C90507D44169C943090403D4C4
:10034000E16B41F00101E1638169C94389070BD485
:100350004169C943890507D44169C943090403D4E4
:10036000E16B41F00201E1638169C94349070BD4A4
:100370004169C943490507D44169C943090403D404
:10038000E16B41F00401E163816911F0700F25D048
:100390004169C943090521D44169C94309041DD4F0
:1003A000816901F0700140292AD006DC102909D0AA
:1003B00020290BD030290DD11EE0502924D06029EE
:1003C00008D125E0E16B41F0080102E0E16B41F06A
:1003D0001001E163816921F070018161E06B002807
:1003E00009D02068416841F00401416084F8395027
:1003F0002046FFF74DFF70BDE16B41F02001E8E7BB
:10040000E16B41F04001E4E7E16B41F08001E0E79E
:10041000E16B41F48071DCE7030000040003000895
:10042000000003102DE9F04104004FF0000504D056
:1004300094F83900002618B107E00120BDE8F081EA
:1004400084F83860204600F077F8022084F83900FC
:100450002068016821F0020101602068016841F014
:100460000101016000F0A6F907464FF0030804E01F
:1004700000F0A0F9C01B0A2845D820684068C007D2
:10048000F6D020684168C90751D0A169012901D17E
:1004900045F08005E169012901D145F04005216A57
:1004A000012901D145F02005616A012901D145F0FA
:1004B0001005A16A012901D145F00805E16A012969
:1004C00001D145F00405016821F0FC0129430160D8
:1004D000D4E902010843D4E90412114308436168D6
:1004E000491E08432168C8612068016821F00101A4
:1004F000016000F05FF905460BE000BF00F05AF91B
:10050000401B0A2805D9383484F80180267003205E
:1005100094E720684068C007F0D020684068C007B2
:1005200005D0E663012084F83900002086E7042026
:1005300084F8390081E7000010B50068194986B0D9
:1005400088422CD11848C16941F00071C161C0696D
:10055000164C00F0007004904FF480700090002062
:10056000019002906946204600F032F86015009034
:1005700002200190032003906946204600F028F8ED
:100580000B48416821F4C04141F4804141600022A0
:100590001146142000F0FCF9142000F0EDF906B02B
:1005A00010BD00000064004000100240000C01403B
:1005B000000001407047704731B500F0FBF8044679
:1005C00000F0F8F80099001B8842F9D338BD00000C
:1005D0002DE9F84FDFF8ACA100220AF1040B144614
:1005E00001274FF00F090BF1040E00BF0B6807FA4B
:1005F00004F52B40AB4276D1DFF88CC14E68A6EBF8
:100600000C0866452BD00DDC032E34D005DC36B348
:10061000012E19D0022E2FD11BE0112E16D0122E32
:100620002AD119E0B8F5881F19D006DCB8F5803F4B
:1006300015D0B8F5801F1FD111E0B8F5001F0ED0FE
:10064000B8F5041F18D10AE0CA6815E0CA68121D7F
:1006500012E0CA6808320FE0CA680C320CE08A68FF
:100660002AB1012A4FF0080203D0456104E00422B8
:1006700002E0056100E00022FF2B01D8054601E001
:1006800000F104054FEA840601D9A6F12006D5F849
:1006900000C009FA06F82CEA080C02FA06F64CEA41
:1006A000060CC5F800C04D68ED0065D5374DAE6944
:1006B00046F00106AE61AD6924F0030605F00105C0
:1006C0000095334D06EB050CDCF80850A607360FF5
:1006D00009FA06F825EA0805DFF8B880404503D195
:1006E0004FF0000817E047E0DFF8AC80404502D14A
:1006F0004FF001080FE0DFF8A480404502D14FF031
:10070000020808E0DFF89880404502D14FF0030866
:1007100001E04FF0040808FA06F848EA0508CCF8AA
:1007200008804D68DAF80060ED03002D554601DAC7
:100730001E4300E09E432E604D68DBF80060AD0371
:10074000002D5D4601DA1E4300E09E432E604D6899
:10075000DEF80060ED02002D754601DA1E4300E070
:100760009E432E604D68AD02002D0E4D2E6801DABD
:100770001E4300E09E432E60641C102CFFF436AF35
:10078000BDE8F88F00040140000011100010024085
:100790000000014000080140000C01400010014031
:1007A000001401400C0401400AB1016170470904C2
:1007B000FBE700000148006870470000F8000020D7
:1007C00070B5040004D094F83500002510B106E09F
:1007D000012070BD84F83450204600F061F82420D8
:1007E00084F835002068016821F00101016000F003
:1007F000CFFD014628482268B1FBF0F05060274A3F
:100800006368934206D94FF4967358434FF47A7352
:10081000B0FBF3F02368401C18626068904208D86F
:100820004000B1FBF0F0C0F30B01042916D2042004
:1008300014E0A26852B100EBC00202EB0010B1FB61
:10084000F0F040F44040010507D007E000EB400025
:10085000B1FBF0F040F40040F5E701202168C861E9
:10086000D4E90701084321680860D4E9031008436C
:1008700021688860D4E9050108432168C8602068C0
:10088000016841F001010160A563202084F8350072
:1008900084F83650002070BD40420F00A086010051
:1008A00000B500680C4985B0884212D1C020009084
:1008B000122001900320039069460848FFF788FE44
:1008C0000748C16941F40011C161C06900F400101A
:1008D000049005B000BD000000540040000C014031
:1008E0000010024002480168491C01607047000086
:1008F000F8000020074810B5016841F010010160C0
:10090000032000F065F8002000F006F800F016F86B
:10091000002010BD0020024010B5044600F01EFD6E
:100920004FF47A71B0FBF1F001F01CFA002221467D
:10093000501E00F02DF8002010BD00000C4808B536
:10094000816941F001018161806900F0010000903E
:10095000032000F03DF800221146501E00F018F868
:100960000448416821F0E06141F00071416008BD38
:10097000001002400000014000F01F0201219140E0
:1009800040094FF0E02202EB8000C0F800117047F0
:10099000F0B40E4B1B680C46C3F30223C3F10705EA
:1009A000042D00D90425191D072901D2002300E0D8
:1009B000DB1E012606FA05F1491E214099409E40A2
:1009C000761E16403143F0BC01F0E2BC0CED00E0B5
:1009D000064900F0070208684FF6FF03184040EA96
:1009E0000220034A10430860704700000CED00E04D
:1009F0000000FA0510B50C0605D501F07F0100EBEB
:100A00004110283003E000EB411000F5027099B26C
:100A100032B101228272C180190C0181002010BD07
:100A2000002282728180F9E7704700EB4112D0F812
:100A30001C04D26B02F03ABB00EB4112D0F81C044C
:100A4000D2F81C2202F087BB10B504460A460B06FA
:100A500001F07F0004EB401101D5283101E001F5E0
:100A600002710870D009487094F8E803012809D091
:100A7000012084F8E803206802F024FF002084F8B5
:100A8000E80310BD022010BD70B50A4604460906F1
:100A900002F07F0003D504EB4011283103E004EBA2
:100AA000421101F5027100258D700870D00948705F
:100AB00094F8E803012809D0012084F8E8032068AD
:100AC00002F0A8FF84F8E853002070BD022070BD3A
:100AD00070B504460D460E0601F07F0004EB401190
:100AE00001D5283101E001F502710870E80948706C
:100AF0000A61CB7094F8E803012809D0012084F83A
:100B0000E803206802F0ACFD002084F8E80370BD23
:100B1000022070BD70B504460E4601F07F0004EB64
:100B2000401101F5027101F1140C0025ACE82C0014
:100B30004D70087094F8E80301280AD0012084F869
:100B4000E8037006206802F0BFFF84F8E853002035
:100B500070BD022070BD70B50D460446090605F053
:100B60007F0003D504EB4011283103E004EB45116D
:100B700001F5027101228A700870E809487094F842
:100B8000E803012807D084F8E823206802F077FF03
:100B9000680602D006E0022070BD04F57B71206873
:100BA00002F036FF002084F8E80370BD70B50446FB
:100BB0000E4601F07F0004EB4011283101F1140CC6
:100BC0000025ACE82C0001224A70087094F8E80374
:100BD000012809D084F8E8237006206802F074FF29
:100BE00084F8E853002070BD022070BD10B50446A3
:100BF000006803F053F8000402D5204601F0D8FB4A
:100C0000206803F04BF840050CD5206830F8441FED
:100C100021F480610180204600F0EAF8002120469E
:100C200000F0FBF8206803F039F8400405D520688F
:100C300030F8441F21F480410180206803F02EF831
:100C4000800405D5206830F8441F21F4005101804C
:100C5000206803F023F8C00413D5206830F8401F43
:100C600021F00401018021684FF43D40A1F84000CB
:100C7000204600F0CAF8206830F8441F21F4805163
:100C80000180206803F00AF800051AD5206830F8C2
:100C9000441F21F400610180206830F8401F41F0BA
:100CA00008010180206830F8401F41F004010180F4
:100CB000206802F0F3FFC043C00402D5204600F0D4
:100CC000E1F8206802F0EAFF800508D5206830F8D6
:100CD000441F21F400710180204600F09AF820683A
:100CE00002F0DCFFC00505D5206830F8441F21F470
:100CF0008071018010BD00002DE9F04186B0040034
:100D00004FF0000504D094F8E903002620B108E074
:100D1000012006B0BDE8F08184F8E863204600F0C9
:100D200049F8032084F8E903206802F06AFE04F120
:100D30001001142288466846FFF7F4F994E80F0082
:100D400002F0BEFD0021206802F0BBFF5FF001074A
:100D500004EB45102830477005708581C670066128
:100D600046616D1C86610F2DF2D3002004EB40110B
:100D700081F8096281F80802888681F80B62C1F85F
:100D80001862C1F81C62401CC1F820620F28EDD324
:100D9000142241466846FFF7C5F994E80F0002F0B7
:100DA00027FE84F8246084F8E973206802F01EFEB0
:100DB0000020AEE708B500680B49884212D10B4805
:100DC000C16941F40001C161C069002200F4000062
:100DD000009011461420FFF7DBFDBDE80840142009
:100DE000FFF7CABD08BD0000005C004000100240D3
:100DF00010B500F21C440121D0F81C0402F066FA80
:100E00002068BDE8104002F030BAD0F81C0402F0AF
:100E10004BBAD0F81C0402F04DBA10B5044690F855
:100E2000E80301280BD0012084F8E80384F824109B
:100E3000206802F048FF002084F8E80310BD02207B
:100E400010BDD0F81C2400F57B71104602F048BAA2
:100E500010B5044690F8E803012810D0012084F86A
:100E6000E80301462046FFF7DFFD206802F0BCFDE5
:100E7000206802F0FEFE002084F8E80310BD022086
:100E800010BD000010B50446D0F81C0402F063FA4F
:100E9000A069002804D00348016841F00601016000
:100EA00010BD000010ED00E001200202034992FA9B
:100EB000A2F2B2FA82F241F82200704700000E421C
:100EC00010B534A401461DCC86B08DE81D0035A0B8
:100ED000354C006804900020012933D002294AD003
:100EE00010292DD161682268D20129D54FF47012E2
:100EF00092FAA2F201F47010B2FA82F220FA02F031
:100F0000C9031DF8000011D561684FF4003292FA50
:100F1000A2F201F40031B2FA82F221FA02F104AA3B
:100F2000515C224AB2FBF1F1484301E020494843B9
:100F30006168490204D440005FF00301B0FBF1F0A6
:100F400006B010BD226AC2F30121012903D1920724
:100F500001D5C803F4E7022905D1626A920702D5D8
:100F600049F64040ECE70329EAD121688903E7D537
:100F70004FF22440E4E700F021FA61684FF4804228
:100F800092FAA2F201F44041B2FA82F2D140491C35
:100F90004900D3E702030405060708090A0B0C0DF4
:100FA0000E0F1010010200000010024000127A0023
:100FB00000093D002DE9F84305460078424CC00782
:100FC0006DD0E06940F08050E061E0693F4E00F094
:100FD00080500090306840F480703060FFF7EAFB8A
:100FE000074604E0FFF7E6FBC01B64282DD83068F5
:100FF000C005F7D5206AA98800F4407001F440715B
:1010000088424CD0206A01263204314992FAA2F378
:10101000B3FA83F320F4407041F8236092FAA2F20D
:10102000B2FA82F2002341F822302062800730D5E4
:10103000FFF7C0FBB046074641F28839022607E0B9
:10104000FFF7B8FBC11B494502D90320BDE8F8836F
:1010500096FAA6F0B0FA80F040F04000B8EB501FCE
:1010600001D120680BE096FAA6F0B0FA80F040F0CB
:101070004000B6EB501F01D1206A00E0606A96FA8A
:10108000A6F2B2FA82F202F01F0208FA02F1084256
:10109000D6D0206A696820F440700843206228781E
:1010A000800705D56068A96820F440400843606067
:1010B0002878C00605D56068E96820F480000843F8
:1010C00060600020C2E70000001002400070004095
:1010D000000442422DE9F047DFF8789205460E46BB
:1010E000D9F80000022300F007070120410442065E
:1010F000994C41F28838B74271D2D9F800C02CF02F
:10110000070C4CEA060CC9F800C0D9F8007007F0CB
:101110000707B7426FD12E78B60705D56668AF6866
:1011200026F0F0063E4366602E78F60756D06E68CD
:10113000012E0BD0022E1ED093FAA3F1B1FA81F149
:1011400041F02001490924D0216823E091FAA1F25D
:10115000B2FA82F242F02002520901D0226800E085
:10116000626A91FAA1F1B1FA81F101F01F018840A0
:10117000024240D017E092FAA2F1B1FA81F141F0B7
:101180002001490901D0216800E0616A92FAA2F2C7
:1011900002E0616A93FAA3F2B2FA82F202F01F024D
:1011A0009040014227D0606820F003003043606027
:1011B000FFF700FB06466868012809D00228474669
:1011C00013D01EE0FFF7F6FA801BB84201D992E077
:1011D00047466068C0F381000128F3D1A1E015E023
:1011E000FFF7E8FA801BB84273D86068C0F381004B
:1011F0000228F5D195E092E0FFF7DCFA801BB842B7
:1012000079D8606810F00C0FF6D18AE02F78BF070C
:1012100007D56768D5F808C027F0F00747EA0C073C
:1012200067602F78FF076DD06F68012F0BD0022FFA
:101230001ED093FAA3F1B1FA81F141F020014909DE
:1012400024D0216823E091FAA1F2B2FA82F242F0AE
:101250002002520901D0226800E0626A91FAA1F1ED
:10126000B1FA81F101F01F018840024257D017E026
:1012700092FAA2F1B1FA81F141F02001490901D0BD
:10128000216800E0616A92FAA2F202E0616A93FAD0
:10129000A3F2B2FA82F202F01F02904001423ED065
:1012A000606820F0030038436060FFF783FA074668
:1012B0006868012807D0022811D01FE0FFF77AFAEA
:1012C000C11B414517D86068C0F381000128F5D1E2
:1012D00018E010E0FFF76EFAC11B41450BD86068BB
:1012E000C0F381000228F5D10CE000BFFFF762FADD
:1012F000C11B414502D90320BDE8F087606810F0AA
:101300000C0FF3D1D9F8001021F007013143C9F8CF
:101310000010D9F8000000F00700B04201D0012011
:10132000EAE72878400705D56068E96820F4E060BE
:10133000084360602878000706D56068296920F4B2
:10134000605040EAC10060600020FFF7E5FA00202D
:10135000D2E70000002002400010024000B500F07B
:1013600043F808494968F02292FAA2F201F0F0012C
:10137000B2FA82F2D140044A515CC8400349086085
:1013800000BD00000010024014410008F4000020DD
:1013900000B5FFF7E3FF074949684FF4E06292FAAE
:1013A000A2F201F4E061B2FA82F2D140024A515C49
:1013B000C84000BD001002401441000800B5FFF70E
:1013C000CDFF074949684FF4605292FAA2F201F446
:1013D0006051B2FA82F2D140024A515CC84000BD6D
:1013E000001002401441000810B585B01AA301ACEA
:1013F000D3E901011A68DB6800920BC41AA01B4BE9
:10140000006804905A681A4802F00C0104291ED0A2
:1014100008291CD14FF4701494FAA4F402F470114A
:10142000B4FA84F421FA04F1D2031DF8011010D5A6
:101430005A684FF4003393FAA3F302F40032B3FA7C
:1014400083F3DA4004AB9A5CB0FBF2F0484305B09A
:1014500010BD08484843FAE70203040506070809D7
:101460000A0B0C0D0E0F10100102000000100240BC
:1014700000127A0000093D002DE9F84F054600787A
:10148000F94EC0074FF0010425D070686704C0F31F
:101490008100012807D07068C0F3810002281BD1A9
:1014A0007068C00318D597FAA7F0B0FA80F040F042
:1014B0002000400901D0306800E0706A97FAA7F177
:1014C000B1FA81F101F01F0104FA01F1084202D0E2
:1014D0006868002876D081E0306820F48030306081
:1014E000306820F480203060FFF764F9804605E022
:1014F000FFF760F9A0EB080064287CD897FAA7F002
:10150000B0FA80F040F02000400901D0306800E0DF
:10151000706A97FAA7F1B1FA81F101F01F0104FA9C
:1015200001F10842E4D16868B0F5803F0BD010B1FA
:10153000B0F5A02F11D0306820F4803030603068D2
:1015400020F4802002E0306840F480303060686829
:1015500020B3FFF72FF980460AE0306840F480207E
:101560003060F0E7FFF726F9A0EB08006428C4D844
:1015700097FAA7F0B0FA80F040F02000400901D0BF
:10158000306800E0706A97FAA7F1B1FA81F101F0D2
:101590001F0104FA01F10842E4D01FE0FFF70AF945
:1015A000804605E0FFF706F9A0EB08006428A4D800
:1015B00097FAA7F0B0FA80F040F02000400902D07E
:1015C000306801E0B1E0706A97FAA7F1B1FA81F1F1
:1015D00001F01F0104FA01F10842E3D12878DFF895
:1015E0008C8280074FF000094FF0020732D57068F7
:1015F00010F00C0F00E084E14FF0F80B07D070689A
:10160000C0F38100022826D17068C00323D497FA62
:10161000A7F0B0FA80F040F02000400901D0306817
:1016200000E0706A97FAA7F1B1FA81F101F01F01A9
:1016300004FA01F1084202D02869012875D1306806
:101640009BFAABF26969B2FA82F220F0F80091409D
:101650000843306059E0286988B394FAA4F1B1FADC
:1016600081F148F82140FFF7A5F8824606E000BF67
:10167000FFF7A0F8A0EB0A00022898D897FAA7F085
:10168000B0FA80F040F02000400901D0306800E05E
:10169000706A97FAA7F1B1FA81F101F01F0104FA1B
:1016A00001F10842E4D030689BFAABF220F0F80177
:1016B0006869B2FA82F290400143316025E0FFE7A9
:1016C00094FAA4F2B2FA82F248F82290FFF772F884
:1016D000824605E0FFF76EF8A0EB0A000228CCD89E
:1016E00097FAA7F0B0FA80F040F02000400901D04E
:1016F000306800E0706A97FAA7F1B1FA81F101F061
:101700001F0104FA01F10842E4D1287800076AD5E4
:101710005748A969A9B394FAA4F1B1FA81F140F844
:101720002140FFF747F8824606E0A6E1FFF742F8BE
:10173000A0EB0A000228A0D897FAA7F0B0FA80F030
:1017400040F06000B4EB501F01D130680BE097FA15
:10175000A7F0B0FA80F040F06000B7EB501F01D165
:10176000306A00E0706A97FAA7F1B1FA81F101F0EE
:101770001F0104FA01F21042D8D00120FEF71CFF2D
:1017800031E0FFE794FAA4F2B2FA82F240F8229034
:10179000FFF710F8824605E0FFF70CF8A0EB0A000F
:1017A00002289CD897FAA7F0B0FA80F040F06000C9
:1017B000B4EB501F01D130680BE097FAA7F0B0FAF4
:1017C00080F040F06000B7EB501F01D1306A00E0BC
:1017D000706A97FAA7F1B1FA81F101F01F0104FADA
:1017E00001F21042D8D12878400773D5F06940F053
:1017F0008050F061F069DFF87CB000F0805000901C
:10180000DBF8001041F48071CBF80010FEF7D2FF36
:10181000824605E0FEF7CEFFA0EB0A00642870D8F0
:10182000DBF80000C005F5D5306A20F00100306219
:10183000306A20F004003062FEF7BCFF834641F2BC
:10184000883A05E0FEF7B6FFA0EB0B01514558D8EA
:1018500097FAA7F0B0FA80F040F04000B4EB501FC8
:101860000AD1306814E0000000100240000042423B
:10187000800442420070004097FAA7F0B0FA80F06E
:1018800040F04000B7EB501F01D1306A00E0706AB1
:1018900097FAA7F1B1FA81F101F01F0104FA01F101
:1018A0000842CFD1E86801280AD008B1052812D033
:1018B000306A20F001003062306A20F0040002E05B
:1018C000306A40F001003062E86890B3FEF772FFC2
:1018D00083460BE059E0306A40F004003062EFE7E5
:1018E000FEF768FFA0EB0B0151450AD897FAA7F065
:1018F000B0FA80F040F04000B4EB501F02D13068E5
:101900000CE09DE097FAA7F0B0FA80F040F04000BC
:10191000B7EB501F01D1306A00E0706A97FAA7F167
:10192000B1FA81F101F01F0204FA02F10842D7D0A6
:101930002BE0FFE7FEF73EFF834605E0FEF73AFFA8
:10194000A0EB0B0151457BD897FAA7F0B0FA80F0D5
:1019500040F04000B4EB501F01D130680BE097FA23
:10196000A7F0B0FA80F040F04000B7EB501F01D173
:10197000306A00E0706A97FAA7F1B1FA81F101F0DC
:101980001F0204FA02F10842D8D1E86980B37168F5
:10199000C1F38101022970D04FF080714F000228FD
:1019A0004A4609D091FAA1F1B1FA81F148F8212013
:1019B000FEF700FF054669E08A4691FAA1F1B1FA07
:1019C00081F1C14648F82120FEF7F4FE804605E08B
:1019D000FEF7F0FEA0EB0800022854D897FAA7F013
:1019E000B0FA80F040F02000400902D0306801E0F9
:1019F00061E0706A97FAA7F1B1FA81F101F01F0175
:101A000004FA01F10842E3D1286AB0F5803F05D11C
:101A10007068A96820F4003008437060D5E90801B7
:101A20000843716821F47411084370609AFAAAF1AE
:101A3000B1FA81F149F82140FEF7BCFE054606E007
:101A400021E000BFFEF7B6FE401B02281BD897FA24
:101A5000A7F0B0FA80F040F02000400901D03068D3
:101A600000E0706A97FAA7F1B1FA81F101F01F0165
:101A700004FA01F10842E5D01DE01EE0FEF79AFEEF
:101A8000401B022802D90320BDE8F88F97FAA7F07F
:101A9000B0FA80F040F02000400901D0306800E04A
:101AA000706A97FAA7F1B1FA81F101F01F0104FA07
:101AB00001F10842E2D10020E6E70120E4E700005E
:101AC00070B5040003D0607C002610B105E0012051
:101AD00070BD2674204600F043F802206074204652
:101AE00000F016F9042578BB204600F019FE58BB1B
:101AF0002068416821F007014160A06820B11748C3
:101B0000016821F0010101601448001F0168A2680A
:101B100021F46071114301606068411C04D101200F
:101B2000FFF7CEF980B1401E21688A6822F00F02CB
:101B300042EA10428A602168CA6860F30F02CA60F4
:101B4000204600F007FE08B16574C0E7E673012087
:101B50006073A0736074002070BD0000306C0040A2
:101B600008B500680B49884213D1FFF79DF90A4870
:101B7000C16941F00061C161C069084900F00060BD
:101B800000900120C20392FAA2F2B2FA82F241F866
:101B9000220008BD0028004000100240000442421C
:101BA0002DE9F0410D4604003BD0C5B3207C01284F
:101BB0003AD04FF0010884F8108002206074E87871
:101BC00072B300F0A4FDE073687800F0A0FD6073CC
:101BD000A87800F09CFDA073C2B2617BE07B00F0AE
:101BE000EBFD20732870204600F0D6FD4FF46161B4
:101BF000B0FBF1F1002518292DD91822B1FBF2F123
:101C0000A1EB011101EB4101C1EB011100EBC11688
:101C10003146204600F010FE0427C8B90BE000E072
:101C200004E00120BDE8F0810220FBE7E073687862
:101C30006073A878CFE7204600F0A7FD411C0AD0CA
:101C4000B04208D206490144204600F0E1FD10B13F
:101C500067742574E5E784F8118025740020E1E7B6
:101C6000805101002DE9F0410D46040024D01DB340
:101C7000207C012823D04FF0010884F81080022036
:101C800060742878EAB100F042FD4FF4616100FB16
:101C900001F6687800F03BFDC0EB001006EB800613
:101CA000A87800F034FD35182946204600F0C4FD20
:101CB0000026042710BB0FE00120BDE8F0810220C0
:101CC000FBE74FF4616148436978C1EB011100EB18
:101CD0008100A9784518E7E72068416821F00501EF
:101CE0004160204600F051FD411C0AD0A84208D2B4
:101CF00006490144204600F08BFD10B1677426743C
:101D0000DAE784F8118026740020D6E780510100BC
:101D100070B504000AD02068416821F008014160D4
:101D2000FEF748FD05464FF47A7608E0012070BDC5
:101D3000FEF740FD401BB04201D9032070BD206872
:101D400040680007F4D5002070BD4FF0E021042862
:101D5000086903D020F004000861704740F00400D7
:101D6000FAE7704710B5401EB0F1807F01D3012023
:101D700010BD4FF0E02460610F21601700F008FBF8
:101D80000020A06107202061002010BD10B5FFF7E2
:101D9000E8FF10BD30B590F83820012A20D001228C
:101DA00080F83820022380F8393003685C6824F01A
:101DB00070045C6003685C680D682C435C600368B9
:101DC0009C6824F080049C6003689C6849680C430C
:101DD0009C6080F83920002180F83810084630BD1A
:101DE000022030BD2DE9F0410D46040003D094F8E7
:101DF000390018B108E00120BDE8F081002084F826
:101E00003800204600F03AF8022084F839002068B3
:101E1000816821F007018160211D206800F084FDA8
:101E2000226890689169166A2B68AF69034340F293
:101E30000330814341EA0721A868EF6908434FF660
:101E4000FC418843E96840EA0720014328692F6A7A
:101E5000000140EA0730084369686D6926F0AA0668
:101E600046EA051529439360226890612068016263
:101E7000012084F839000020BEE7000000B50068AA
:101E80000B4985B0884211D10A48C16941F002016D
:101E9000C161C069694600F002000490C020009052
:101EA0000020019002900448FEF792FB05B000BDAF
:101EB0000004004000100240000801401FB5006807
:101EC000B0F1804F08D101200090022001900390D2
:101ED00069460248FEF77CFB1FBD00000008014078
:101EE00070B50D46040003D094F8390010B107E036
:101EF000012070BD002084F83800204600F015F85D
:101F0000022084F83900211D206800F00DFD2068B2
:101F1000016821F00801016020680168294301601F
:101F2000012084F83900002070BD704770B5044668
:101F300090F838000D4601280DD0012684F838604D
:101F4000022084F8390042B1042A18D0082A2AD085
:101F50000C2A4DD139E0022070BD206800F016FD3A
:101F60002068816941F0080181612068816921F060
:101F700004018161206881692A69114311E02068A8
:101F800000F02CFD2068816941F4006181612068C6
:101F9000816921F480618161206881692A6941EA4F
:101FA0000221816124E0206800F044FD2068C169BD
:101FB00041F00801C1612068C16921F00401C161DB
:101FC0002068C1692A69114311E0206800F05EFDB4
:101FD0002068C16941F40061C1612068C16921F4D0
:101FE0008061C1612068C1692A6941EA0221C16139
:101FF000383466700020207070BD10B5040003D026
:1020000094F8390010B107E0012010BD002084F8D9
:102010003800204600F00CF8022084F83900211D19
:10202000206800F081FC012084F83900002010BDF8
:1020300008B50068B0F1804F08D10548C16941F08A
:102040000101C161C06900F00100009008BD0000FD
:102050000010024070B5040004D094F83900002547
:1020600010B106E0012070BD84F83850204600F021
:1020700021F8022084F839002068C16821F4005159
:10208000C160204600F040FD2068016921F49041C4
:1020900001612068416921F02A0141612068C1681D
:1020A00041F40051C160E563012084F8390000204B
:1020B00070BD000010B50068114986B088421DD17E
:1020C0001048816941F48041816180690E4C00F4BF
:1020D000804004904FF40070009002200190032093
:1020E000039069462046FEF773FA00212015CDE9DA
:1020F0000001029169462046FEF76AFA06B010BD5B
:1021000000380140001002400008014010B50400F2
:1021100002D0607C10B106E0012010BD00202074C8
:10212000204600F017F802206074D4E9010108434A
:1021300021684A686FF3080210434860206801680C
:10214000E26821F07F0111430160012060740020EA
:1021500010BD000008B500680649884208D106484D
:10216000C16941F40061C161C06900F40060009080
:1021700008BD0000002C004000100240094808493A
:1021800001601021416000218160C16001614161F5
:102190008161C161016241628162C162FEF742B93F
:1021A00000640040980900202DE9F0473F4886B0C0
:1021B000816941F010018161816901F01001049190
:1021C000816941F020018161816901F02001049160
:1021D000816941F004018161816901F00401049188
:1021E000816941F0080181618069032400F00800E1
:1021F00004904EF60370CDE90004DFF8B4A0694600
:102200005046FEF7E5F9FC200125CDE90005022640
:10221000694603965046FEF7DBF948F21200CDE915
:102220000004DFF8909069464846FEF7D1F94FF474
:102230009677CDE90075694648460396FEF7C8F9DA
:1022400044F61740CDE90004DFF86C80694640464B
:10225000FEF7BEF94BF22806CDE900656946404617
:102260000394FEF7B5F92803CDE900056946039408
:102270005046FEF7ADF90420CDE9000469460F4849
:10228000FEF7A6F9002241F2FC015046FEF78CFA57
:10229000002239464846FEF787FA0022314640467A
:1022A000FEF782FA06B0BDE8F08700000010024099
:1022B0000010014000080140000C014000140140E2
:1022C00010B512488AB04FF080410024C0E90014D4
:1022D0008460C4600461FFF790FE08210B48FFF79B
:1022E000FFFD079407A909480894FFF753FD6020F4
:1022F000CDE9000402940022694604480494FFF7E3
:1023000015FE0248FFF7DAFD0AB010BD280A0020CA
:1023100010B510488CB00E490024C0E90014846048
:10232000C46004610120CDE90004CDE902040494F5
:10233000CDE905400794694606480894FFF752FD29
:10234000099409A903480A94FFF724FD0CB010BDB5
:1023500000040040640A002010B500220849094822
:1023600000F081FE0849074801F018F807490548C0
:1023700000F0AEFCBDE81040024801F05DB800007E
:102380000000002074050020740000205800002088
:102390000907090E002803DA00F00F00024A00E0E6
:1023A000024A81547047000014ED00E000E400E0B0
:1023B0002DE9FC5F4FF000080446ADF80480ADF84D
:1023C000008048F60F7B4FF002094FF4806690E1E1
:1023D000BDF8041011F00F072AD030F82710ADF81F
:1023E0000010BDF80010090477D530F8272040F61A
:1023F0008F710A4020F8272004EB471505F5027578
:10240000A87A0028206869D0297830F82120520461
:102410007ED5B0F8503009EBC101194406EB4101FB
:10242000415AC1F3090ABAF1000F72D0EA88D0E02C
:10243000BDF80410C9062AD4018801EA0B01018005
:10244000206804F12805B0F850202B7809EBC3016F
:10245000114406EB4101405AC0F309006064E16B8E
:102460000844E06300212046FEF7DFFA94F82400D8
:102470000028ACD0A8690028A9D194F824002168CC
:1024800040F08000A1F84C0084F8248031E10188FC
:1024900004F50275ADF80010BDF8001009051ED551
:1024A000B0F850302978062202EBC101194406EB3E
:1024B0004101405A04F57B71C0F30903EB61AA881E
:1024C000206801F0EFFB2068018840F68F72114010
:1024D00001802046FEF7B5FC0BE1A0E055E0BDF819
:1024E00000100904D2D5028840F68F710A4002809C
:1024F0002068B0F850302978062202EBC101194457
:1025000006EB4101405A83059B0DEB610BD001E0C6
:1025100050E062E0AA886969206801F0C3FBE969BC
:1025200068690844686100212046FEF785FA206842
:10253000B0F85010891D06EB4101014428693E287E
:102540000CD9C0F34F12C00601D1521E92B24FF601
:10255000FF7000EA822040F4004009E0C0F34F021F
:10256000C00701D0521C92B24FF6FF7000EA8220E1
:102570000860216808884BF68F72104080F4405044
:1025800048F2800210430880B3E0B0F850202B7866
:10259000062101EBC301114406EB4101415AC1F38D
:1025A000090ABAF1000F24D0AA885346696901F0DC
:1025B00079FB1EE0B0F85020062303EBC101114463
:1025C00006EB4101415AC1F3090ABAF1000F04D0E8
:1025D0002A895346696901F065FB2978206830F83B
:1025E000213048F68F72134048F2C002134320F89E
:1025F0002130E96901EB0A00E861696901EB0A022F
:102600006A61AB6913B12869504504D9297820461D
:10261000FEF712FA03E029782046FEF77BFABDF8B0
:102620000000000665D5206804EB4715283530F812
:10263000271001EA0B0120F82710A87A002820684B
:1026400012D0297830F82120B0F8503052061ED52B
:1026500009EBC101194406EB4101405A83059B0D6A
:10266000EB6124D0EA881EE0B0F850302A7809EBFC
:10267000C201194406EB4101405A83059B0DEB61F1
:1026800021D0AA886969206801F023FB1BE006229B
:1026900002EBC101194406EB4101405A83059B0D31
:1026A000EB6104D02A896969206801F012FB29785E
:1026B000206830F8212048F68F731A404CF28003CE
:1026C0001A4320F821202068B0F850202B7809EB1D
:1026D000C301114406EB4101405AC0F30900E8610F
:1026E00069690A186A612978AB69204663B1FEF707
:1026F0005DFA2068B0F84410ADF8041009043FF505
:1027000067AE0020BDE8FC9FFEF78FF9F1E70109F5
:1027100001EB810100F00F0000EB4100C0B27047F7
:1027200070B50446FEF746F805464FF47A7606E0A3
:10273000FEF740F8401BB04201D9032070BD20686D
:1027400040688006F4D52068416841F0100141607E
:10275000002070BD70B504460068416821F010018A
:102760004160FEF727F805464FF47A7607E000BF90
:10277000FEF720F8401BB04201D9032070BD20684D
:1027800040688006F4D5002070BD0168086A496A77
:1027900089B241EA00407047006881698AB2C16924
:1027A0008BB2816989B28A4203D0C06961F31F404C
:1027B000704743EA0240704730B5C1EBC10404EBF7
:1027C00001140925B4FBF5F400F5FA632244184618
:1027D000104464229400072503290AD25B1EB3FB30
:1027E000F2F100EB9300401AB3FBF4F10844001D32
:1027F00008E0B3FBF2F100EB9300401AB3FBF4F1F5
:102800000844801CB0FBF5F105FB1100C0B230BDDF
:1028100070B50D4606460024FFF782FF48B93168BF
:10282000280C08623168A8B248623046FFF792FF70
:1028300000B10124204670BD70B50D460646002447
:10284000FFF76EFF48B93168280C88613168A8B27B
:10285000C8613046FFF77EFF00B10124204670BDFD
:1028600010B5FEF73FF8BDE81040FFF78FBA30B55E
:1028700093B00920009001214FF48030002406918C
:10288000CDE901040225CDE907504FF4E01009908D
:102890006846FEF7F1FD0F20CDE90A056802CDE993
:1028A0000C4002210AA80E94FEF714FC11200F9090
:1028B0002802109012940FA8FEF77CFBFEF74EFD45
:1028C0004FF47A71B0FBF1F0FFF74CFA0420FFF7F8
:1028D0003CFA00221146501EFEF75AF813B030BDE4
:1028E0000D48016841F00101016041680B4A114047
:1028F000416001680A4A11400160016821F48021A9
:102900000160416821F4FE0141604FF41F018160C4
:102910000449C00308607047001002400000FFF83F
:10292000FFFFF6FE08ED00E0F0B50268144B154C11
:10293000154D4FF08047984205D0B84203D0A042D1
:1029400001D0A84203D122F070064A68324398426F
:1029500005D0B84203D0A04201D0A84203D122F44E
:102960004074CA68224302608A68C2620A6882624E
:10297000984201D10969016301214161F0BD000064
:10298000002C0140000400400008004030B5026AFD
:1029900022F001020262026A4368846924F073052E
:1029A0000C682C4322F002058A682A430A4DA8428B
:1029B0000BD122F00805CA6823F440732A434D69FD
:1029C00022F004021D438B692B43436084614968F4
:1029D0004163026230BD0000002C014030B5026A44
:1029E00022F010020262026A436884690D6824F4CE
:1029F000E64444EA05248D6822F0200242EA0512EA
:102A00000B4DA8420ED1CD6822F0800242EA051299
:102A10004D6923F4406343EA85038D6922F0400247
:102A200043EA85034360846149688163026230BD83
:102A3000002C014030B5026A22F480720262036AFF
:102A40004268C46923F4007324F073050C682C43B6
:102A50008D6843EA05230C4DA8420ED1CD6823F4BE
:102A6000006343EA05234D6922F4405242EA05120D
:102A70008D6923F4806342EA05124260C4614968AB
:102A8000C163036230BD0000002C014030B5026A12
:102A900022F480520262046A4268C3690D6823F41A
:102AA000E64343EA05238D6824F4005444EA0534E0
:102AB000064DA84204D14D6922F4804242EA8512B3
:102AC0004260C36149680164046230BD002C01406A
:102AD0000349096848430A38401EFDD27047000088
:102AE0006C000020054806490068B0FBF1F040008A
:102AF0000321B0FBF1F0034908607047F4000020A7
:102B000000093D006C0000202DE9F04104460068FA
:102B10000169E26821F44051114301612169A06813
:102B20000843616908432168CA6841F20C639A430B
:102B30000243CA6020684169A26921F440711143CF
:102B400041612849206864254FF03208884218D135
:102B5000FEF734FC00EBC00101EB00106168890056
:102B6000B0FBF1F0B0FBF5F6FEF728FC00EBC0017E
:102B700001EB001061688900B0FBF1F7FEF71EFC65
:102B800017E0FEF705FC00EBC00101EB00106168E7
:102B90008900B0FBF1F0B0FBF5F6FEF7F9FB00EBB6
:102BA000C00101EB001061688900B0FBF1F7FEF78E
:102BB000EFFB00EBC00101EB001061688900B0FB86
:102BC000F1F0B0FBF5F06FF01801484307EB80011E
:102BD00008EB0110B0FBF5F0216866F31F10886068
:102BE000BDE8F08100380140D0F81802002180F8DB
:102BF00050100846704770B50546D0F81842D5F811
:102C00001C226178D2682078904740232246012117
:102C1000284600F023FB002070BD10B5044681213A
:102C200000F03DFA0121204600F039FAD4F81802EC
:102C300048B104F50674606880688047206800F039
:102C40000AFD00202060002010BD10B5D0F8184209
:102C5000E16C012908D1D0F81C0223786178C268A0
:102C6000184690470020E064002010BD2921018013
:102C700000487047B00000200A21018000487047DA
:102C8000E800002070B506460025022303228121BA
:102C900000F0DAFA022303220121304600F0D4FAD0
:102CA000542000F0D9FCC6F8180278B10446002080
:102CB00084F85000D6F81C02406880474023224622
:102CC0000121304600F0CAFA284670BD0125FBE715
:102CD00002460220002902D00020C2F81C127047D0
:102CE00070B500220D78D0F81842134615F0600533
:102CF00026D0202D4CD14A78921E0A2A1CD2DFE819
:102D000002F010081B1B1B1B1B140C058878206489
:102D10003EE0012204F1400131E04888000A60648D
:102D200036E0012204F1440129E00122E2648A79BB
:102D3000214600F053F82BE000F045F8022070BD6A
:102D40004D78062D04D00A2D1CD00B2D20D11DE06E
:102D50004C882225B5EB142F07D1CA88212A00D927
:102D60002122D0F81C120B6808E02125B5EB142FA6
:102D700004D1CA88074B092A00D90922194600F054
:102D800047F805E0012204F14801F8E78878A064DB
:102D9000002070BDDC00002010B5D0F8142252686D
:102DA0009047002010BD134610B50A46002100F0E0
:102DB00055FA002010BD134610B50A46002100F058
:102DC000D2FA002010BD10B50446802100F0B5FAFB
:102DD0002046BDE81040002100F0AFBA10B5032333
:102DE000C0F80821C0F8F431C0F80C2113460A4697
:102DF000002100F033FA002010BD10B5052100239A
:102E0000C0F8F4111A46194600F028FA002010BD47
:102E100010B502238261C0F8F431C26113460A463C
:102E2000002100F0A0FA002010BD10B504210023FD
:102E3000C0F8F4111A46194600F095FA002010BDAA
:102E400010B50A46024903A000F0EAF8004810BD98
:102E500098070020437573746F6D204849442043E0
:102E60006F6E666967000000122008800048704796
:102E70002000002010B50A46024903A000F0D0F857
:102E8000004810BD98070020437573746F6D20488B
:102E9000494420496E7465726661636500000000F4
:102EA00004200880004870471C00002010B50A4626
:102EB000024903A000F0B4F8004810BD98070020B4
:102EC00053544D6963726F656C656374726F6E699C
:102ED0006373000010B50A46024903A000F0A0F891
:102EE000004810BD9807002053544D3332204375DD
:102EF00073746F6D2048756D616E20696E746572B4
:102F0000666163650000000010B50A46024903A02F
:102F100000F086F8004810BD9807002030303030AF
:102F2000303030303030314100000000F8B5044618
:102F300048880D46010A082954D2DFE801F05304FD
:102F4000091753534951D4F81012207C0A6819E02C
:102F5000207C02260028D4F8140205D0C16A6846F5
:102F60008847014646704AE0816AF8E7C1B20629FF
:102F700026D2DFE801F0030A0F14191ED4F810124C
:102F8000207C4A686946904718E0D4F81012207CEB
:102F90008A68F7E7D4F81012207CCA68F2E7D4F800
:102FA0001012207C0A69EDE7D4F81012207C4A69DF
:102FB000E8E7D4F81012207C8A69E3E701461EE0B6
:102FC000C1B2D4F814026A46836B20469847F5E7ED
:102FD000207C38B9D4F81402416B68468847EDE785
:102FE000207C20B129462046FFF7EDFEF8BDD4F83D
:102FF0001402016B68468847014607204870BDF8F7
:1030000000000028F2D0EA88002AEFD0824200D8DF
:103010001046ADF8000082B22046FFF7F9FEF8BD79
:1030200070B5002300281DD00446002502E06D1C69
:10303000EDB2641C2678002EF9D1022404EB45047D
:103040001480CC545B1C0322CA545B1C002406E091
:10305000CA545B1CDAB2401C8C54521CD3B20278A6
:10306000002AF5D170BD10B580B1D0F8143213B17B
:103070000023C0F8143209B1C0F81012012180F801
:10308000FC11027000F09CF8002010BD022010BD61
:1030900010B5D0F82002FDF7F7FC002010BD10B5E8
:1030A000D0F82002FDF7D0FC002010BD2DE9F04142
:1030B0001746044641B1D4F8140242698AB394F821
:1030C000FC01032842D043E0D4F8F411002504F1B8
:1030D0001400022933D1D0E902639E4207D9F31AC2
:1030E00083609AB239462046FFF765FE12E04068D9
:1030F000B0FBF3F103FB1101A1B9984212D3D4F84C
:10310000F81188420ED2002211462046FFF753FEE6
:10311000C4F8F85100231A461946204600F09EF8DC
:103120000DE012E0D4F81402C16829B194F8FC0152
:10313000032801D1204688472046FFF75EFE94F819
:103140000002012804D184F8005201E02046904793
:103150000020BDE8F08170B51546044641B1D4F8B1
:10316000140282693AB394F8FC01032824D025E0C4
:10317000D4F8F41104F5827003291FD1D0E902219B
:103180008A420BD9531A83600846834200D3034610
:103190009AB229462046FFF706FE0FE0D4F8140243
:1031A000016929B194F8FC01032801D12046884720
:1031B0002046FFF73AFE01E020469047002070BD10
:1031C00010B5044617480146C0F81C4404F50874BD
:1031D00015482160086008204860022088600320AC
:1031E000C86000208861C86108620846FDF784FD58
:1031F0000022182311462068FDF7FCFB582300220B
:1032000080212068FDF7F6FB9823002281212068A9
:10321000FDF7F0FBD823002201212068FDF7EAFB2F
:10322000002010BD54010020005C00400A06D0F8C8
:10323000200201F07F0100EB411002D590F82A0036
:10324000704790F80A02704710B51C461346D0F834
:1032500020022246FDF73CFC002010BD10B5D0F83E
:103260002002FDF757FC002010BD70B50022044677
:1032700040231146FFF7E8FF40252B46002280211E
:103280002046C4F81051FFF7DFFF0120256284F8C3
:10329000FC01D4F8180228B1D4F81402217942684C
:1032A00020469047002070BD90F8FD1180F8FC1179
:1032B0000020704710B590F8FC11032904D1D0F814
:1032C0001412C96901B18847002010BD01740020A3
:1032D000704710B5D0F82002FDF79FFD002010BD0B
:1032E00070B5044600F50270054600F043F8012071
:1032F000C4F8F401B4F80E02C4F8F80194F8080216
:1033000010F01F010AD001290DD0022910D000F0C1
:103310008001204600F011F8002070BD29462046AB
:1033200000F08FF8F8E72946204600F07AF9F3E735
:103330002946204600F006F9EEE710B5D0F8200245
:10334000FDF709FC002010BD10B5D0F82002FDF7F4
:103350007FFD002010BD00F5FE7001784170042152
:1033600001700020704710B5D0F82002FDF71EFC58
:10337000002010BD0A7802704A7842708A78CB78B3
:1033800002EB032242800A794B7902EB032282800E
:103390008A79C97902EB0121C18070470246002079
:1033A00011B1C2F8141270470220704710B5D0F85E
:1033B000142202241AB11268904700B90024204652
:1033C00010BD000070B50E461A4D8978044629706C
:1033D000012928D894F8FC01022802D0032822D120
:1033E00005E099B10320616084F8FC0109E091B126
:1033F000606888420AD0C1B22046FFF7CDFC297828
:1034000061602046FFF7D2FF02280CD02046BDE8BD
:103410007040FFF70ABD022084F8FC01204661607D
:10342000FFF7BAFCF2E731462046BDE87040FFF7EF
:10343000CABC00007000002010B5FFF785FF002017
:1034400010BD2DE9F04100254E7801242A460A2EB0
:103450004FD2DFE806F03C5E4E514E08054E2A275B
:10346000FFF764FD6BE006468888C8B9C888B8B91C
:10347000887800F07F0796F8FC01032810D086F8C2
:10348000FE7139463046FFF724FF3046FFF7CDFC8A
:103490001FB1022086F8FC0151E086F8FC414EE0A5
:1034A000304626E0FFF78EFF49E0CB88012B20D184
:1034B00090F8FC31022B02D0032B1AD104E0826079
:1034C000012200F1080111E00122011D0EE090F837
:1034D000FC21022A01D0032A0BD1C460D0F80412C7
:1034E00009B10321C160022200F10C01FFF790FC39
:1034F00025E0FFF768FC22E00646488801281ED137
:10350000C6F80442D6F81402826830469047304626
:1035100013E0044690F8FC01022803D0032801D0F0
:103520002046E6E74888012809D1C4F80422D4F8E7
:1035300014028268204690472046FFF776FC284612
:10354000BDE8F08170B50D4604462878002609795B
:10355000C0F34110012806D06878A0B301281FD01D
:1035600003283FD107E0D4F8140229468268204698
:103570009047002070BD94F8FC01022817D0032862
:103580002CD1688828B921B1802902D02046FFF7C4
:10359000D4FED4F81402294682682046904713E0EE
:1035A00094F8FC01022802D0032817D103E0C9B126
:1035B00080291BD116E06888A0B9480604D02046AF
:1035C000FFF766FDE5E703E02046FFF72EFC09E084
:1035D00094F8FC01022807D003280BD02946204686
:1035E000FFF7F1FB304670BD4806FBD02046FFF7E1
:1035F000A4FEF7E70806002801F07F0004EB0015A1
:1036000001DA143501E005F582752046FFF70EFE5C
:1036100000B101202860022229462046FFF7F8FB6E
:10362000E0E770B5054690F8FC010C4603280DD183
:10363000207901280AD8D5F81402826828469047D4
:10364000E08830B92846FFF7F0FB02E02846FFF794
:10365000BAFB002070BD704700487047FC00002096
:103660002DE9F047CC780A7848F68F1334B1012C55
:103670006DD0022C08D0032C13D10BE030F822407F
:103680001C4044F400730AE030F822401C4020F84B
:10369000224006E030F822401C4044F4C06320F889
:1036A00022300C7830F8245048F68F72154048F2DA
:1036B00080031D43254320F824508D7A48F6BF79B6
:1036C00004274BF68F7A48F2C0044CF28006EDB323
:1036D0000D7830F825C048F280180CEA020C4CEA4C
:1036E000080C20F825C0CD88B0F850C025F00105A1
:1036F00091F800800CEBC80C00EB4C0CCCF800549B
:103700000D89B0F850C025F0010591F8008007EB55
:10371000C807674400EB4707C7F800544D78002DF1
:103720000D7830F825704FEA47477CD0002F05DA36
:1037300030F825701740374320F825700D7830F8A1
:1037400025707F0608D530F8257001E024E01DE0E3
:103750001740274320F825700C7830F82450154086
:10376000354320F824500C7830F8242002EA09026E
:103770001A4320F824200A7830F8221001EA0A01BE
:10378000194320F822100020BDE8F08730F82240CD
:103790001C4044F4806382E74D78F5B18D88B0F821
:1037A000506025F001050F7806EBC70600EB4606D2
:1037B000C6F800540D7830F82560760605D530F847
:1037C00025601640264320F825600A7830F822103C
:1037D00001EA090181F02001D2E78C88B0F850504D
:1037E00024F0010491F800C007EBCC073D4400EB46
:1037F0004505C5F80044B0F850400D78062707EBA2
:10380000C5052C4400EB44070C6907F580674FF6AB
:10381000FF7C3E2C0DD9C4F34F15E40602D1A5F16F
:103820000105ADB200E021E00CEA852444F4004437
:1038300008E0C4F34F05E40702D005F10105ADB27D
:103840000CEA85243C600C7830F824506D0405D5D2
:1038500030F824501540354320F824500A7830F8C9
:10386000221001EA0A0181F4405189E7002F05DAAC
:1038700030F825701740374320F825700D7830F860
:103880002560760605D530F825601640264320F8D9
:1038900025600E7830F826501540254320F8265034
:1038A0000C7830F8242002EA0A0282F440521A43CB
:1038B00020F824200A7830F8221001EA09015FE795
:1038C000002070472DE9F04391F80A8091F801C07B
:1038D0000A7848F6BF774BF68F7948F2800348F2B2
:1038E000C0054CF2800648F68F74B8F1000F2ED058
:1038F000BCF1000F30F822C04FEA4C4C4ED0BCF166
:10390000000F07DA30F822C00CEA040C4CEA060C6F
:1039100020F822C00A7830F822C05FEA4C6C07D544
:1039200030F822C00CEA040C4CEA050C20F822C046
:103930000A7830F822502540354320F822500C7880
:1039400030F824203A401A4320F824201BE0BCF130
:10395000000F0ED030F82260760605D530F82260D0
:1039600026402E4320F822600A7830F82210394091
:103970000EE030F822506D0405D530F82250254075
:10398000354320F822500A7830F8221001EA090164
:10399000194320F822100020BDE8F083BCF1000F8D
:1039A00007DA30F822C00CEA040C4CEA060C20F8C6
:1039B00022C00A7830F82260760605D530F82260F9
:1039C00026402E4320F822600E7830F82620224030
:1039D0002A4320F826200C7830F8242002EA090235
:1039E0001A4320F82420BFE70020704700207047CA
:1039F000012120F8401F00210180818001820846BA
:103A0000704730F8401F21F43D410180002070478D
:103A10000020704730B54D780A78002D48F68F7435
:103A200030F8225048F2800312D06D0607D530F8E6
:103A30002250254048F2C004254320F822500A783D
:103A400030F8221048F6BF74214081F0300111E0B7
:103A50006D0407D530F8225025404CF280042543F0
:103A600020F822500A7830F822104BF68F7421404B
:103A700081F44051194320F82210002030BD10B5C8
:103A80000A7848F2800352B14978002930F82210B0
:103A900010D048F6BF74214081F010010FE001887A
:103AA0004BF6BF72114081F4805181F0100119432F
:103AB000018007E04BF68F74214081F48051194357
:103AC00020F82210002010BD2DE9F0410D460646D9
:103AD000896995F801C00023AA7A022728690C4653
:103AE00048F28008BCF1010F05D0814253D9044649
:103AF000081AA86150E0814203D90446081AA86157
:103B000000E0AB6182B1287836F820104906002920
:103B1000B6F8501007EBC000084406EB4000C0F8B0
:103B2000004412DA2A8911E0A3B2AA8830466969F2
:103B300000F0CFF8B6F85000297807EBC10108442F
:103B400006EB4000C0F800441CE0EA88A3B230460F
:103B5000696900F0BEF8687848F68F7110B10128E5
:103B600007D00FE0287836F820200A4048F2C0013C
:103B700005E0287836F820200A404CF280010A43FC
:103B800026F82020297836F8210048F6BF72104028
:103B900080F0300066E0AB6106234FF6FF701AB18B
:103BA000BCF1000F1AD055E0B6F850102A783E2C20
:103BB00003EBC202114406EB410202F5806238D9E0
:103BC000C4F34F11E30631D000EA812040F40040F5
:103BD00002E000BF00EA812010603BE0B6F8501020
:103BE0002A783E2C07EBC202114406EB410202F593
:103BF00080620BD9C4F34F115FEAC46C01D1491E36
:103C000089B200EA812141F4004108E0C4F34F0188
:103C10005FEAC47C01D0491C89B200EA81211160AD
:103C200069780029C0D001290AD013E0491E89B261
:103C3000CAE7C4F34F01E307CCD0491C89B2C9E7F6
:103C4000B6F85000297807EBC101084406EB4000A4
:103C5000C0F80044297836F821004BF68F721040E6
:103C600080F4405040EA080026F821000020BDE81A
:103C7000F08130F8401F41F43D4101800020704741
:103C800010B50448FCF706FBBDE810400248FCF7FD
:103C9000ADBF00009809002054010020B0F8440096
:103CA000704700005B1C00EB42005B0800F5806081
:103CB00006D000BF30F8042B21F8022B5B1EF9D18F
:103CC00070470020704711B98021A0F84C100020E7
:103CD000704710B55B1C00EB42005B0800F580608C
:103CE00008D00A784C78891C42EA042220F8042B78
:103CF0005B1EF6D110BD00002DE9F041164D0446C3
:103D0000002240212846FCF74FFD01228021284651
:103D1000FCF74AFD114FAE15002231463846FCF73C
:103D200043FD0FE0002280212846FCF73DFD0120E5
:103D3000FCF742FC012280212846FCF735FD0120DA
:103D4000FCF73AFC641EEDD231463846BDE8F0413E
:103D50000122FCF729BD00000010014000080140CD
:103D60002DE9F041164D0446012240212846FCF77A
:103D70001BFD012280212846FCF716FD114FAE15D0
:103D8000002231463846FCF70FFD0FE0002280216B
:103D90002846FCF709FD0120FCF70EFC01228021DA
:103DA0002846FCF701FD0120FCF706FC641EEDD25D
:103DB00031463846BDE8F0410122FCF7F5BC000071
:103DC000001001400008014002E008C8121F08C1AD
:103DD000002AFAD170477047002001E001C1121F8C
:103DE000002AFBD17047000008494FF4805008605A
:103DF0004200081F02600520401EFDD20A60012219
:103E00000248D1031438FCF7CFBC0000140C014069
:103E10000A4A10B54FF480515161094B20201860B7
:103E20000420401EFDD208241C600320401EFDD249
:103E30000348001D0460116110BD00000010014026
:103E4000100C01401CB500252E46A8462F46FCF755
:103E500051FDFEF70CFDFEF7A7F9FEF78FF960485C
:103E60005E49002401605F49C0E901144FF48041BC
:103E7000C0E9034144618461C4610462FCF7A0FCB1
:103E8000574859493C300160611EC0E90114FDF7F3
:103E900017FE4FF001098DF8049051488DF8054048
:103EA0008DF806404A4601A93C30FDF7DBFE8DF84F
:103EB00000908DF801904A488DF802908DF80340EB
:103EC000012269463C30FDF76BFEFEF721FA4448BB
:103ED0004649C83001604FF4E131C0E901140C21BA
:103EE000C460C0E904418461C461FEF7B3F841488D
:103EF0003F49C0E9001440218160C160FEF706F926
:103F0000FEF72AFAFEF7DCF9FEF7ECFD3A4C012247
:103F100004212046FCF748FCDFF8DCA04FF0200924
:103F20000AF1100ACAF80090012249463348FCF70A
:103F30003BFC2020FFF7E0FE4FF4FA70FEF7C8FDCF
:103F40000E20FFF70DFF2E48FEF7C2FD00F05AF8D5
:103F500000F0A2F800F0C8F84FF47A7B00220821A4
:103F60002046FCF721FC0120FEF7B2FD01220821CA
:103F70002046FCF719FC5846FEF7AAFD6D1C1E2DC5
:103F800010D0192DEADA002FE8D172B649461A4846
:103F90001430C0F800901A20401EFDD2CAF800105C
:103FA00062B6DBE70025FFF71FFF761C162EEAD16D
:103FB0000026FFF72DFF00F025F800F06DF808F15E
:103FC0000108B8F10E0FDED1A846012700F044F831
:103FD000002220210948FCF7E7FBD4E70054004009
:103FE000D8090020A08601000028004000380140C8
:103FF000002C0040E00A00200008014000100140B1
:1040000020A107002DE9F041114920200860840219
:10401000104D002221462846FCF7C6FB0D49A6108C
:1040200014310E608814086015220F1F03235B1ED5
:10403000FDD23E600320401EFDD20E60521EF5D21E
:1040400021462846BDE8F0410122FCF7ADBB000047
:1040500010080140000C0140F0B50C48202101601F
:104060000B4E851475610B4C08202060231F1960CE
:104070000D210322521EFDD218600322521EFDD2D2
:104080002060491EF5D23561F0BD000010080140E6
:1040900000100140140C014070B511492020086047
:1040A000FFF7B0FF0F4D4FF4004400222146284691
:1040B000FCF77AFB0B49A0101431086042100B1F6B
:1040C0001A600522521EFDD218600322521EFDD234
:1040D000086021462846BDE870400122FCF764BB19
:1040E00010080140000C014030B5084A4FF48051DF
:1040F0005161074B202018600824181F0460052018
:10410000401EFDD21C60116130BD00000010014056
:10411000140C01400000000001020304010203042A
:10412000060708094441000800000020FC000000C8
:10413000C83D000840420008FC000020FC0B0000C5
:10414000D83D0008692E0008A12E0008AD2E0008F9
:10415000D52E0008092F0008412E0008752E0008F2
:1041600004030904120100020000004083045057B8
:10417000000201020301000000C000000000000076
:10418000000000000000000000000000000000002F
:1041900000000000000000000000000034000020CB
:1041A00079020008750200088D0200080000000076
:1041B0000000000000000000852C00081B2C0008F7
:1041C000E12C0008000000004B2C0008E92B00083F
:1041D000F72B0008000000000000000000000000B5
:1041E0006D2C00086D2C00086D2C0008792C00083F
:1041F0000000000009022900010100C0320904008A
:104200000002030000000921110100012221000722
:1042100005810302002007050103020020000000C1
:104220000921110100012221000000000A060002FC
:10423000000000400100000000A24A04000000004D
:04000005080000ED02
:00000001FF
