:020000040800F2
:10000000500E002001010008E10D0008050D000858
:10001000DD0D0008A50100085924000800000000BB
:100020000000000000000000000000009D13000818
:100030009D0800080000000019100008CD1C0008F1
:100040001B0100081B0100081B0100081B01000820
:100050001B0100081B0100081B0100081B01000810
:100060001B0100081B0100081B0100081B01000800
:100070001B0100081B0100081B0100081B010008F0
:100080001B0100081B0100081B0100081B010008E0
:10009000592300081B0100081B0100081B01000870
:1000A0001B0100081B0100081B0100081B010008C0
:1000B0001B0100081B0100081B0100081B010008B0
:1000C0001B0100081B0100081B0100081B010008A0
:1000D0001B010008311D00081B0100081B0100085E
:1000E0001B0100081B010008E5200008DFF80CD008
:1000F00000F018F80048004739270008500E00208B
:100100000648804706480047FEE7FEE7FEE7FEE7B1
:10011000FEE7FEE7FEE7FEE7FEE7FEE7D11C00088C
:10012000ED000008064C074D06E0E06840F00103D2
:1001300094E8070098471034AC42F6D3FFF7DAFF93
:10014000602900088029000870B501EB020410F84E
:10015000015B15F0070301D110F8013B2A1106D10C
:1001600010F8012B03E010F8016B01F8016B5B1E26
:10017000F9D12B0705D40023521E0FD401F8013BFF
:10018000FAE710F8013B02F10202A1EB030303E0DE
:1001900013F8015B01F8015B521EF9D5A142D6D3D9
:1001A000002070BD00BFFEE70146CAB20B1243EA51
:1001B0000220704708B50020009015E190480088A3
:1001C00000F00F008F4908700846007800287DD1A4
:1001D0008D4800688D4908800846008800F030008E
:1001E0008B4908808948008800F44050874908807E
:1001F000854909684BF6BF7201EA020080F400509D
:1002000080F0200040F4004141F080017E4A1160FE
:100210007B48008810F0100F32D11046006848F675
:100220000F7108401146086000F06EFD76490968BC
:100230004BF6BF7201EA02007449098811F4805F2D
:1002400001D080F480507149098811F4005F01D019
:1002500080F400506E49098811F0100F01D080F031
:1002600010006B49098811F0200F01D080F02000A8
:1002700081B241F4004141F08001634A116008BD40
:100280006148006880B20090BDF8000010F4006F73
:1002900036D05D480068C0F30E0048F68F71084004
:1002A0005949086001F010FA574909684BF6BF72C6
:1002B00001EA02005549098811F4805F01D080F4F9
:1002C00080505249098811F4005F00E052E001D0EB
:1002D00080F400504E49098811F0100F01D080F0D1
:1002E00010004B49098811F0200F01D080F0200048
:1002F00081B241F4004141F08001434A1160BEE700
:10030000BDF8000010F4004F6ED03F480068C0F305
:100310000E0048F68F7108403B49086000F040FE2F
:10032000394909684BF6BF7201EA0200374909886A
:1003300011F4805F01D080F480503449098811F4B1
:10034000005F01D080F400503149098811F0100F8E
:1003500001D080F010002E49098811F0200F01D043
:1003600080F0200081B241F4004141F08001264A32
:10037000116084E723480078234951F8200080B2B7
:100380000090BDF8000010F4004F14D01D48007814
:1003900051F82000C0F30E0048F68F71084019494B
:1003A0000978194A42F8210016490978491E194A64
:1003B00052F821008047BDF8000010F0800F13D0E4
:1003C00010480078104951F8200048F60F71084095
:1003D0000C4909780C4A42F821000A490978491E5B
:1003E0000D4A52F82100804707484430006880B227
:1003F0000349088010F4004F7FF4E0AE00BF3EE7F1
:10040000880000203C010020005C004050010020DA
:10041000520100206C00002050000020094951F8D2
:10042000201011F4804F0BD0064951F8201048F6E7
:100430008F7211404CF280021143024A42F82010A0
:1004400070470000005C0040094951F8201011F08D
:10045000400F0BD0064951F8201048F68F7211401A
:1004600048F2C0021143024A42F8201070470000CF
:10047000005C0040064951F8201048F68F62114098
:1004800048F280021143024A42F8201070470000EF
:10049000005C00402DE9F0472848006800F1100595
:1004A0002E8826480068077AD6B9042F18D1244828
:1004B000006801280FD100212248006880B2801C0A
:1004C000214A42F8101030202049088000BF002047
:1004D0001B49086003E0072710201C49088027E01B
:1004E000AC88A64201D8042000E002200746B442AE
:1004F00000D93446A0B2A96888478046002000F0A1
:100500006DFB8146A2B24946404601F0A7FFA1B269
:10051000002000F0EBFF2888001B2880688820441A
:10052000688030200949088000020949088000BF1E
:10053000024909680F72BDE8F08700004001002001
:1005400034010020505C0040006000405201002057
:10055000500100202DE9F0412848006800F1100406
:100560002688A068C0B1BEB1A588B54200D935467D
:10057000A8B2A168884707462088401B2080608871
:1005800028446080002000F007FB8046AAB2414664
:10059000384600F02DFD00BF208850B14FF4405088
:1005A000174908800021084600F0A0FF30201549B7
:1005B00008802088A188884204DB03200F4909684D
:1005C000087218E02088002804DD05200B4909681E
:1005D000087210E0208870B906200849096808727E
:1005E00000210948006880B2801C084A42F81010B7
:1005F000302004490880BDE8F0810000400100205F
:100600005001002052010020505C0040006000407A
:100610002DE9F84F9848006845780027BA46062D1E
:100620001AD195480068007810F07F0F13D19249D5
:1006300009688878012803D190490968CF690AE0E0
:10064000022803D18D4909680F6A04E0032802D10A
:100650008A4909684F6A90E0002D60D18648006899
:10066000408800285BD184480068C088022856D1A1
:10067000814800680079002851D17F4800680078DF
:1006800010F07F0F05D17C480068808808B97C4F46
:1006900073E079480068007800F07F00012810D1ED
:1006A000754909684879754909688A690021904740
:1006B000002862D170480068807A00285DD0704FB1
:1006C0005BE06D480068007800F07F00022854D19C
:1006D00069480068407900F00F0667480068407973
:1006E00000F0700964480068407910F0800F05D070
:1006F000644850F8260000F0300804E0614850F8E3
:10070000260000F4405860480078B04235D9B9F16D
:10071000000F32D1B8F1000F2FD0594F2DE0082D26
:1007200007D155480068007810F07F0F25D1574F4A
:1007300023E00A2D21D150480068007800F07F00A6
:1007400001281AD14C480068807AB0B14A48006844
:10075000408890B948480068007970B946480068F8
:10076000C088012809D14449096848794349096882
:100770008A690021904700B9454F57B13E4800684B
:10078000A0F812A03C48006887610020B847002408
:100790000FE0394A12685078384A12681169884760
:1007A0000446032C05D10920334909680872BDE8C5
:1007B000F88F31480068008AA0F57F41FF3904D1E5
:1007C00009202D4909680872F1E7022C03D02A4854
:1007D0000068008A20B90820274909680872E6E7FE
:1007E00025480068007810F0800F3CD0224800684F
:1007F000C088009020480068008A0099884204D987
:100800001D4900980968088223E01B480068008A97
:1008100019490968C98888421BDA17480068008AA4
:100820001649096891F82C10884203DA002019490A
:1008300008600EE010480068008A1049096891F8C5
:100840002C1090FBF1F201FB120010B901201149AC
:1008500008600A48006890F82C10074800688182F8
:10086000FFF718FE06E00320034909680872000339
:100870000949088000BF9AE7400100204401002098
:1008800045190008005C004098000020C9180008C5
:1008900019190008340100205001002070470000A1
:1008A00070B51E480078012836D11D48006818B977
:1008B00000201A4908702FE01948006840280ED916
:1008C0001848008885B24024164800684030154911
:1008D0000860134800684038114908600FE011486B
:1008E000008885B20E48008884B20E4800680C4922
:1008F000096808440B4908600020094908600A4952
:1009000048192246C02101F0A9FD2146012000F02E
:10091000EDFD012000F014FE70BD00000C00002071
:100920000800002004000020D001002010B5064976
:10093000032001F027FD84B2E1B2034801F03AFD43
:10094000032000F0ADFD10BDD00900200149086072
:10095000704700001404014000212349C268002AA6
:100960003AD00A46126803689A430B461A600A1D79
:10097000126803689A430B1D1A60426811440A68A2
:1009800003681A430A60184A0832126803689A43D7
:10099000154B08331A601A1D126803689A43124BEC
:1009A0000C331A608268102A0ED11A1F126803686D
:1009B0001A430D4B08331A601A1D126803681A4354
:1009C000094B0C331A600DE00749826811440A682C
:1009D00003681A430A6005E0426811440A68036824
:1009E0009A430A6070470000000401402DE9F0417D
:1009F000024600250026002000230024002791F84D
:100A000008C00CF00F0591F808C01CF0100F03D0BF
:100A1000D1F804C04CEA050591F800C0BCF1000F04
:100A200031D0146800202BE04FF0010C0CFA00F3D9
:100A3000B1F800C00CEA03069E4220D183004FF0BB
:100A40000F0C0CFA03F7BC4305FA03FC4CEA040450
:100A5000D1F808C0BCF1280F06D14FF0010C0CFAF8
:100A600000FCC2F814C00AE0D1F808C0BCF1480F7D
:100A700005D14FF0010C0CFA00FCC2F810C0401C6C
:100A80000828D1D31460B1F800C0BCF1FF0F34DDE9
:100A9000546800202EE000F1080C4FF0010808FA1D
:100AA0000CF3B1F800C00CEA03069E4221D183008A
:100AB0004FF00F0C0CFA03F7BC4305FA03FC4CEAA9
:100AC0000404D1F808C0BCF1280F05D100F1080CCE
:100AD00008FA0CF8C2F81480D1F808C0BCF1480F2D
:100AE00007D100F1080C4FF0010808FA0CF8C2F821
:100AF0001080401C0828CED35460BDE8F08100006F
:100B0000F0B50A46002300240021002500F000462D
:100B1000B6F1004F02D11D4EF16901E01B4E716824
:100B2000C0F3034583B200F44016B6F5401F08D168
:100B300021F07061154E766826F07066134F7E6066
:100B400012E000F48016B6F5801F06D1032606FADF
:100B500005F4A14341F0706106E0460D360103FA49
:100B600006F6B14341F0706122B1460D360103FA39
:100B700006F6314300F00046B6F1004F02D1034EB5
:100B8000F16101E0014E7160F0BD00000000014024
:100B9000416170470161704701460548006880B2B5
:100BA00000EBC100001D034A32F8100080B270470C
:100BB000505C00400060004001460648006880B27A
:100BC00000EBC100801D044A32F81000C0F3090098
:100BD00070470000505C004000600040014605483E
:100BE000006880B200EBC100034A32F8100080B206
:100BF00070470000505C00400060004070B50A483B
:100C00000468001D0568001D0668344454B10822BC
:100C10000649204600F0B0F8042204491031284665
:100C200000F0AAF870BD0000E8F7FF1F26000020C2
:100C300070B52F480078012858D02E480068B0F5CC
:100C4000006F02D100202B4908602A4800682A4919
:100C50000968884203D100202549087070BD2548E5
:100C6000006825490968884206D922480068C0F50D
:100C700000602249086006E01F4800681D490968B5
:100C8000401A1E4908601D48006840280ED91948BE
:100C9000008885B240241748006840301549086034
:100CA000164800684038154908600FE01148008870
:100CB00085B21248008884B20E4800680F4909685E
:100CC00008440C49086000200C49086001200849CC
:100CD00008700B4948192246C02101F0BFFB21468C
:100CE000012000F003FC012000F02AFC00BFB5E762
:100CF0000C0000200400002000000020080000205C
:100D0000D001002000BFFEE710B518480068047A43
:100D1000022C01D0042C05D1FFF7BCFB134800685E
:100D2000047A1CE0062C19D1104800684078052888
:100D30000ED10E480068007810F07F0F08D10B49E3
:100D40000968C87800F034FB09490968086A8047D7
:100D50000849096888688047082400E00824034996
:100D600009680C7200F05AF910BD00004001002023
:100D70004C0100204401002030B50B46002100BF8B
:100D800016E00A24B4EB107F05D9302404EB10746C
:100D900003F8114005E0412404EB10740A3C03F809
:100DA0001140000100254C00641C1D554C1CE1B293
:100DB0009142E6DB30BD000010B5064CA07A18B1B8
:100DC00005200549086002E001200349086000F0A1
:100DD0007FFF10BD300A00202001002000BFFEE789
:100DE0007047704770B5002100230F2244680CB390
:100DF000164C246804F4E064C4F5E064210AC1F1EF
:100E00000403CA40447804FA03F18478144021436F
:100E100009010F4C0678A155047804F01F05012440
:100E2000AC4005786D114FF0E02606EB8505C5F85E
:100E3000004109E0047804F01F050124AC40054D91
:100E40000678761145F8264070BD00000CED00E0F4
:100E500000E400E080E100E002490143024A116041
:100E6000704700000000FA050CED00E070B50226A6
:100E700046480068447845480068007810F07F0FC5
:100E800044D1092C03D100F0D9FD06465FE0052CC2
:100E900014D13E480068C0787F280BDC3B480068CE
:100EA000807838B939480068808818B937480068B0
:100EB000807A08B1082565E0002648E0032C0ED1B1
:100EC00032480068C078012807D13048006880881F
:100ED00018B900F0D7FD064639E0022637E0012CAC
:100EE00035D12A480068C07801280DD1274800680C
:100EF000808848B925480068407A10F0200F03D058
:100F000000F03EFC064622E0022620E01F48006872
:100F1000007800F07F00012805D10B2C17D100F0DC
:100F200021FE064613E019480068007800F07F00B3
:100F300002280BD1012C03D100F022FC064606E06A
:100F4000032C04D100F0B2FD064600E002264EB1AB
:100F5000E0B20F4A1268516988470646032E01D154
:100F600009250FE00EB108250CE0062500210948EF
:100F7000006880B2801C084A42F8101030200749EF
:100F8000088000BF014909680D7270BD4001002052
:100F900044010020505C00400060004052010020ED
:100FA00010B511480068047A022C01D0042C01D13C
:100FB000082412E0032C01D0052C05D1FFF7CAFA52
:100FC00009480068047A08E0072C05D10749096838
:100FD000C8688047082400E00824034909680C72A7
:100FE00000F01CF810BD000040010020440100206A
:100FF000F0B5561C7510074E06EB41042B4605E074
:1010000034F8047B20F8017B401C5B1E002BF7D1D9
:10101000F0BD0000006000407047000010B50D48B2
:1010200090F82C10002000F0F9F90B480068007AC5
:10103000082805D140020949088010200849088085
:1010400005480068007A092801D1012010BD002060
:10105000FCE700009C00002040010020500100201F
:101060005201002010B5012001F042F801240B4884
:10107000046000200A490880084600880749086083
:101080000020091D08604FF4E0500549088008461B
:10109000008802490860002010BD0000405C00404C
:1010A0004A01002029B1064AD2690243044BDA61A1
:1010B00004E0034AD2698243014BDA6170470000C1
:1010C0000010024029B1064A92690243044B9A611A
:1010D00004E0034A92698243014B9A617047000021
:1010E0000010024030B500210022002400232D4DC5
:1010F0006D6805F00C0121B1042905D0082923D120
:1011000005E0294D056022E0274D05601FE0254DD3
:101110006D6805F47012234D6D6805F48034022566
:1011200005EB92421CB9214D554305600BE01D4D66
:101130006D6815F4003F03D01C4D5543056002E077
:10114000194D5543056002E0174D056000BF00BF13
:10115000144D6D6805F0F0010909154D6B5C0568CB
:10116000DD4045600F4D6D6805F4E061090A104DE2
:101170006B5C4568DD4085600A4D6D6805F4605123
:10118000C90A0B4D6B5C4568DD40C560054D6D6857
:1011900005F44041890B074D6B5CC568B5FBF3F561
:1011A000056130BD0010024000127A0000093D00C8
:1011B00054010020640100200149086070470000CC
:1011C000D800424270B50546072D01D02E48056073
:1011D0002D48006808284ED2DFE800F004111A20DC
:1011E0002B384E4F2948006828B900F053F80620E4
:1011F0002549086002E005202349086041E000F02D
:1012000049F804202049086001202049086038E09E
:1012100002201D4908710320086032E01A48007955
:10122000401E194908710846007908B90420086071
:1012300027E01748006884B244F0100414480460A2
:101240000520114908600A2008711AE00E4800794B
:10125000401E0D4908710846007958B90C480068CD
:1012600084B224F010040A480460062008600020BC
:101270000649086005E000BF00BF0620024908607B
:1012800000BF00BF70BD00002C010020280100201D
:10129000405C004010B50748006884B224F00404A4
:1012A00004480460FFF788FD4FF43F40014908609F
:1012B00010BD0000405C004010B5094800680528DA
:1012C0000CD1084801680068401C064A10600529D6
:1012D00004D1002011460860FFF7AAFC10BD0000F1
:1012E00020010020400000203EB504460D46234961
:1012F00051F82410224A52F82420114341F00100F1
:101300000121FFF7DFFE34B91E4951F82400012105
:10131000FFF7D8FE09E001210820FFF7F1FB19498A
:1013200051F824000121FFF7BDFE18200290164855
:1013300030F81400ADF8000003200190134951F873
:1013400024006946FFF752FB04200290104830F851
:101350001400ADF800000F4951F824006946FFF76A
:1013600045FB0D4951F82400294600F0DFFD0A49EC
:1013700051F82400012100F0EFFC3EBD482900088F
:10138000502900084029000858290008A001002021
:101390005C290008A8010020980100207047000087
:1013A0004FF6F8710140014A11607047505C0040EF
:1013B00030B501460E4B1A78002010E0C3B20D4C38
:1013C00054F8233048F68F74234048F280042343B6
:1013D000C4B22343C4B2074D45F82430401C9042A8
:1013E000ECD341F08003034C4C34236030BD00004B
:1013F00098000020005C004010B54A105300054AD8
:10140000126892B202EBC002121D034C44F8123073
:1014100010BD0000505C00400060004010B5024666
:101420000F48006880B200EBC200801D0D4C04EB39
:1014300040033E290BDD481111F01F0F01D1441E5E
:10144000A0B24FF4004444EA80241C6007E0481036
:1014500011F0010F01D0441CA0B284021C6010BD29
:10146000505C00400060004010B50C4B53F8203039
:101470004BF68F7403EA040211F4805F01D082F40A
:10148000805211F4005F01D082F4005242F4004314
:1014900043F08003014C44F8203010BD005C004054
:1014A000094A52F820204BF68F7302EA030181F4B7
:1014B000805181F4005141F4004242F08002024B1D
:1014C00043F8202070470000005C004010B54A102F
:1014D0005300044A126892B202EBC002024C44F874
:1014E000123010BD505C004000600040044A126899
:1014F00092B202EBC002921C024B43F812107047EA
:10150000505C00400060004010B50C4B53F8203098
:1015100048F6BF7403EA040211F0100F01D082F004
:10152000100211F0200F01D082F0200242F400439B
:1015300043F08003014C44F8203010BD005C0040B3
:10154000094A52F8202048F6BF7302EA030181F0ED
:10155000100181F0200141F4004242F08002024B70
:1015600043F8202070470000005C0040054A52F814
:10157000202048F68F131A400A43024B43F82020DC
:1015800070470000005C004010B500F001F810BD8D
:101590000CB50020019000903248006840F4803083
:1015A0003049086000BF2F48006800F40030009008
:1015B0000198401C0190009818B90198B0F5A06FEF
:1015C000F1D12848006810F4003F02D001200090BB
:1015D00001E0002000900098012842D122480068D4
:1015E00040F01000204908600846006820F0030021
:1015F00008600846006840F002000860194840682A
:10160000184948600846406848600846406840F409
:10161000806048600846406820F47C1048600846B6
:10162000406840F4E81048600846006840F0807068
:10163000086000BF0B48006810F0007FFAD009482E
:10164000406820F00300074948600846406840F0C1
:101650000200486000BF0348406800F00C00082802
:10166000F9D10CBD00100240002002400EB501214E
:101670002020FFF727FD0420ADF800000320019093
:101680001420029069460948FFF7B0F94FF4802012
:10169000FFF75CF94FF48020054908600820886056
:1016A0000120C8600846FFF757F90EBD0008014049
:1016B000C001002010B50020FFF77EFD0121C80504
:1016C000FFF7F0FC10BD000038B501242948006880
:1016D00080B2001D284931F8100080B201EB4000B3
:1016E000009026480068007A092832D000980078D7
:1016F0002249096808700098401C00900098007802
:101700001E49096848700098401C0090009800EB42
:1017100044000090009931F8020B0091FEF744FD5F
:10172000164909684880009800EB44000090009931
:1017300031F8020B0091FEF737FD104909688880E7
:10174000009800EB44000090009800880B4909685D
:10175000C880012009490968087208480068C088E3
:1017600010B9FFF783FB01E0FEF752FFFFF756FCCD
:1017700038BD0000505C0040006000404001002087
:101780002DE9F0474B480068007800F07F08B8F179
:10179000000F0AD147480068407A00F0DF00454951
:1017A000096848720020BDE8F087B8F1020F7ED1C9
:1017B00040480068408818B93E480068007908B180
:1017C0000220F0E7DFF8F0903A480068477927F008
:1017D00080052C4637480068407910F0800F05D00E
:1017E000364850F8240000F0300604E0334850F842
:1017F000240000F4405699F80000A84204D91EB114
:101800002C480068807A08B90220CCE717F0800FD6
:101810000ED02A4850F8240000F0300010283FD1A4
:10182000E0B2FEF711FEE0B23021FFF76DFE37E0C7
:10183000224850F8240000F44050B0F5805F2FD1CA
:10184000C4B91F4A92F82C10E0B2FFF7E7FD1B491C
:1018500051F824104BF68F7201EA020080F4805098
:1018600080F4005040F4004141F08001134A42F8F6
:10187000241015E0E0B2FEF7D1FD104951F8241014
:101880004BF68F7201EA020080F4805080F4005021
:1018900040F4004141F08001084A42F8241000BFA2
:1018A000084909684869804700207CE7FFE700BFD6
:1018B000022078E74001002098000020005C0040F2
:1018C0009C0000204C01002010B504462CB90120DA
:1018D000064909680882002010BD054909680868A2
:1018E0008047024800680A30F6E700004001002007
:1018F0004C01002010B5024606480068438A32B900
:101900008888C01A034C24682082002010BD086813
:101910001844FBE74001002010B504462CB9012013
:10192000064909680882002010BD054909688868D1
:101930008047024800680C30F6E7000040010020B4
:101940004C01002010B504462CB902203749096823
:101950000882002010BD0020354908803348006807
:10196000007810F07F0F23D130490968487A10F0D1
:10197000200F06D02E49097841F002012C4A11703F
:1019800005E02B49097801F0FD01294A117010F09A
:10199000400F06D02649097841F00101244A117010
:1019A00005E02349097801F0FE01214A117036E073
:1019B0001E480068007800F07F00012801D11C4813
:1019C000C8E71A480068007800F07F00022824D198
:1019D000164A1268517901F00F0011F0800F0DD0F6
:1019E000144A52F8202002F03002102A14D1104A72
:1019F000127842F001020E4B1A700DE00D4A52F8B7
:101A0000202002F44052B2F5805F05D1084A1278D6
:101A100042F00102064B1A7001E000209AE70649E5
:101A2000096808698047024894E7000040010020E7
:101A300038010020005C00404C01002010B50E4829
:101A40000068C0780D494978884213DC0A4800686C
:101A5000807878B908480068808858B906480068D6
:101A6000C07805490968887205490968486880474F
:101A7000002010BD0220FCE740010020980000205B
:101A80004C01002010B507480068407A40F0200063
:101A900004490968487204490968C86980470020F8
:101AA00010BD0000400100204C0100202DE9F04154
:101AB00028480068467926F080073C46254800689B
:101AC000407910F0800F05D0234850F8240000F032
:101AD000300504E0204850F8240000F440551F4829
:101AE0000078A04208D91B480068408820B91DB181
:101AF00018480068807A10B90220BDE8F08116F01D
:101B0000800F10D0144951F8241048F6BF7201EA32
:101B1000020080F0100040F4004141F080010E4AC4
:101B200042F8241010E00C4951F824104BF68F7243
:101B300001EA020080F4805040F4004141F080014D
:101B4000054A42F8241000BF0549096888698047A2
:101B50000020D2E740010020005C004098000020F7
:101B60004C01002010B5174B1B68D978154B1B682A
:101B70005879154B1B689A699047044611480068CC
:101B8000807AE8B13CB90F480068007918B90D486F
:101B90000068807808B1022010BD8CB90B49096833
:101BA000C868804707480068407906490968C872D4
:101BB00004480068C0780349096808730020EBE70F
:101BC0000220E9E740010020440100204C010020F0
:101BD00018B50021002200230093384B1B6898B2EF
:101BE00000BF08E0354B403B53F821309BB2344CEA
:101BF00044F82130491C0829F4D340F480602F4B6D
:101C0000186040F00100186020F00100186000BF6B
:101C10002A4B1B1D1B6813F4806FF9D04FF6FF335E
:101C2000264C241D2360002108E0254B53F8213069
:101C30009BB2224C403C44F82130491C0829F4D383
:101C400040F008001D4B18601B6898B240F004007B
:101C50001A4B18601B4B1B6800931A4B1A6822F032
:101C6000030242F001021A60174B1B6843F00403A1
:101C7000154C2360114B1B1D1B6813F4805F06D1AC
:101C800030BF23461B6823F00403236014E04EF6A4
:101C9000FF730A4C241D2360231F1B6898B220F099
:101CA0000800231F1860074C009B2360064B1B682D
:101CB00023F00403044C236018BD0000405C004086
:101CC000100A00200070004010ED00E07047000096
:101CD00010B51348006840F001001149086008463B
:101CE0004068104908400E494860084600680E499F
:101CF00008400B4908600846006820F4802008600E
:101D00000846406820F4FE0048604FF41F008860D9
:101D1000FFF73AFC4FF000600449086010BD000076
:101D2000001002400000FFF8FFFFF6FE08ED00E0A3
:101D300010B540F22551074800F0A9F808B100F0AD
:101D40006BF90821034800F095F810B1014800F044
:101D500059F910BD0038014021B1828942F4005286
:101D6000828104E082894DF6FF731A4082817047B8
:101D700010B52F48007920B1012806D002280ED1D5
:101D800008E000202B49C8800DE04FF4405029495D
:101D9000C88008E04FF400502649C88003E000F0F6
:101DA0004BF8002010BD00BF2148407920B1012828
:101DB00006D002280ED108E000201E4908810DE05F
:101DC0004FF480601B49088108E04FF4C060194956
:101DD000088103E000F030F80020E3E700BF14487A
:101DE0008079072802D0082810D103E0002011498B
:101DF00088800FE00F48008918B900200D498880BD
:101E000003E04FF480500B49888003E000F014F8A1
:101E10000020C7E700BF06480068064908600020A8
:101E200088810C2048810020FFF75EFA0120B9E785
:101E300090000020B001002010B54FF416500B495F
:101E4000086000208880C8804FF4C06008810020AE
:101E500088810C2048810020FFF746FA012240F2D9
:101E60002551034800F03DF810BD0000B0010020EE
:101E70000038014002460020B1F5007F00D100BFCC
:101E800013880B4201D0012000E00020704770B59C
:101E900002460024002300250020A1F510666A3EBA
:101EA00000D100BFC1F3421501F01F03012606FA5D
:101EB00003F3012D02D19689334006E0022D02D1B1
:101EC000168A334001E0968A33400C12012606FA46
:101ED00004F41688344013B10CB1012000E0002056
:101EE00070BDF0B503460024002600250020A1F5B2
:101EF00010676A3F00D100BF1846C1F3421401F0D9
:101F00001F06012707FA06F5012C01D10C3004E069
:101F1000022C01D1103000E014301AB107682F43B1
:101F2000076002E00768AF430760F0BD2DE9F047A6
:101F300086B005460E460024A24600BFA1460027F3
:101F4000B08900B100BF2F462C8A4CF6FF700440C8
:101F5000F08804432C82AC894EF6F3100440B0881C
:101F600031890843718908430443AC81AC8A4FF638
:101F7000FF400440B0890443AC8201A8FFF7B2F8E7
:101F80001F48874202D1DDF810A001E0DDF80CA067
:101F9000A88910F4004F08D00AEBCA0000EB0A1021
:101FA00031684900B0FBF1F807E00AEBCA0000EB2A
:101FB0000A1031688900B0FBF1F86420B8FBF0F03A
:101FC00004012009642101FB1089A88910F4004F45
:101FD00008D0322000EBC900B0FBF1F000F00700A0
:101FE000044308E0322000EB09106421B0FBF1F05B
:101FF00000F00F0004432C8106B0BDE8F08700001C
:102000000038014001468888C0F308007047C1F3DA
:10201000080282807047000010B52C48807907289C
:1020200009D12B48FFF7EEFF00F07F0029492A4A2B
:10203000126888540AE025488079082806D1244887
:10204000FFF7E0FF2349244A1268885421482249B7
:102050000968445C2148006820B91F480068401C9A
:102060001D4908600D2C0CD11C48006820B11A488D
:102070000068401C18490860002018490860184989
:1020800008600B2C05D11648006810B901201449CE
:1020900008601348006801280FD1212C05D10220C7
:1020A0000F49086001200D490860402C05D103202C
:1020B0000B49086001200949086007480068B0F52D
:1020C000006F02D100200449086010BD900000207C
:1020D00000380140D001002000000020180000203E
:1020E0002000002010B54FF48020FEF72FFC10BD1B
:1020F00010B5044624B104210448FEF749FD03E06D
:1021000004210248FEF746FD10BD00000008014012
:1021100010B5084808490860022009680872074895
:1021200007490860074808490860054909680868C0
:10213000804710BD300A0020400100209C00002094
:1021400044010020CC0000204C0100201CB54FF4BD
:10215000A060FEF781FE14208DF8000002208DF8AB
:10216000010000208DF80200012001906846FEF772
:1021700039FE2A208DF8000000208DF80100684605
:10218000FEF730FE25208DF8000001208DF80100BB
:102190006846FEF727FE1CBD10B588B000246648CF
:1021A0000068664908800846008800F400706449A9
:1021B000098808420AD04FF6FF505F49086061481D
:1021C0000078401C5F490870FFF776F85B4800888C
:1021D00000F400405A490988084201D0FDF7EAFF9F
:1021E0005648008800F4806055490988084206D0A6
:1021F0004FF6FF30504908605349486880474F48C0
:10220000008800F400504E490988084203D04DF67A
:10221000FF70494908604948008800F480504849E7
:102220000988084206D04EF6FF7043490860002036
:10223000FEF7C8FF4148008800F400604049098863
:1022400008420CD04148006810B1FFF7C1FC02E021
:102250000220FEF7B7FF4FF2FF703749086037489A
:10226000008800F4807036490988084261D04FF632
:10227000FF6031490860081D006810F4004F52D01B
:1022800033480068401C324908600846006803284B
:102290004CD92948001F006810F0080F46D1264885
:1022A000001F006880B22B490860002407E0224824
:1022B000443850F8240080B24DF82400641C082CE7
:1022C000F5D32448006840F0010022490860084620
:1022D000006880B21849091F08601E48006820F095
:1022E00001001C4908600846006880B21249091FB5
:1022F000086000BF1048006810F4806FFAD04FF6F5
:10230000FF300D490860002407E05DF8240080B22A
:102310000949443941F82400641C082CF5D30020F5
:102320000B49086002E00020094908600720FEF719
:1023300049FF08B010BD0000445C00408800002048
:102340004A010020440000209C00002024010020BD
:10235000480000204C00002010B5FFF71DFF10BD05
:102360000020064908604FF43F40054908800846B0
:1023700000880249091F086000207047445C004043
:102380004A0100202DE9F04104460E46002504F0E4
:102390007F00FEF711FC054604F07F00FEF7FCFB12
:1023A00007462A4639463046FEF722FE2846BDE853
:1023B000F08100002DE9F04106460F46002540E07F
:1023C000745D2248006850B921462148FFF71FFE7E
:1023D00000BF80211E48FFF74DFD0028F9D00D2CCD
:1023E00012D11A48006850B121461948FFF70FFE74
:1023F00000BF80211648FFF73DFD0028F9D00020DE
:102400001249086013490860092C05D11148006879
:1024100010B901200F4908600E48006801280FD14B
:10242000212C05D102200B490860012007490860D2
:10243000402C05D1032007490860012003490860AA
:102440006D1CBD42BCD3BDE8F0810000140000202B
:10245000003801401C00002000BFFEE7F0B5144624
:1024600004F1010C4FEA6C07DFF824C00CEB4103C8
:102470003D460AE00678401C90F800C046EA0C226F
:1024800023F8022B9B1C401C6D1E002DF2D1F0BDC9
:102490000060004070B504460025212C08D1124888
:1024A0000068007800F07F0021280ED10F4D0CE06D
:1024B000202C0AD10C480068007800F07F00212809
:1024C00000D10B4D20200B4908700DB9022070BDC2
:1024D00005480068856100210348006841820020AA
:1024E000A8470020F3E70000400100202125000854
:1024F000B12600088C00002010B504460249204691
:10250000FFF7F8F910BD0000F800002010B50446F0
:1025100002492046FFF7EEF910BD0000F000002050
:10252000014629B90820034A12681082002070472A
:102530000148FCE7400100209000002070B50546EE
:1025400006480068C478042C01DD002070BD0448F2
:1025500000EBC4012846FFF7CDF9F7E74001002062
:10256000000100200246002901DD02207047012AF7
:1025700001DD0220FAE70020F8E7000001460848E4
:102580000068007800F07F00212807D1022901D1DE
:1025900000207047222901D10020FAE70220F8E745
:1025A0004001002010B50020344909688872344881
:1025B000C079324909684872002030490968C872F8
:1025C000FEF7EEFE4FF400710020FEF7CFFF102162
:1025D0000020FEF799FF40210020FEF70DFF80212B
:1025E0000020FEF773FF0020FDF744FF254890F818
:1025F0002C100020FEF712FF0020FEF751FF0021F3
:102600000120FEF7B3FFC0210120FEF75FFF20216C
:102610000120FEF779FF00210120FEF725FF4FF48E
:10262000C0610220FEF7A2FF4FF480710220FEF786
:102630004DFF00210220FEF717FF20210220FEF7A8
:1026400063FF00210320FEF791FF4FF48871032000
:10265000FEF7D2FE40210320FEF7E0FE4FF440518A
:102660000320FEF701FF00210320FEF74DFF0020AD
:10267000FEF79EFE01200449086010BD40010020C5
:10268000162800089C000020200100200348817AC1
:1026900011B10521024A116070470000300A002084
:1026A000200100200420014908607047200100201B
:1026B000014629B90820034A126810820020704799
:1026C0000148FCE7400100209000002010B50548BB
:1026D0000078202804D1FFF74BFB00200149087047
:1026E00010BD00008C0000207047000010B5FEF700
:1026F00085FA0020064909688872FEF7B3FCFFF7E7
:102700002FFEFFF799FB00200249086010BD000072
:10271000400100202001002002E008C8121F08C16B
:10272000002AFAD170477047002001E001C1121F52
:10273000002AFBD170470000FEF798FF2C48806903
:1027400040F004002A4988612A48006820F47F404C
:10275000284908600846006840F44C500860244846
:10276000806940F01000224988612348006820F405
:102770007000214908600846006840F44010086075
:10278000FEF798FFFFF7E2FCFFF7C2FC04201949AF
:10279000103108600820091D086020201649486192
:1027A00025E01648006890B10F2472B60820114940
:1027B0001431086000BF2000A4F10104FBD10820FF
:1027C0000C491031086062B620200B4948610C4862
:1027D0000068022804D109480068401C07490860C5
:1027E00041F6FF7400BF2000A4F10104FBD1D8E73B
:1027F00000100240000801400010014014000020B9
:102800001C00002012010002020000408304405717
:1028100000020102030109024300020100C0320963
:10282000040000010202010005240010010524013A
:1028300000010424020205240600010705820308A2
:1028400000FF09040100020A00000007050302401E
:102850000000070581024000000403090426035319
:102860000054004D006900630072006F0065006C49
:102870000065006300740072006F006E0069006301
:102880000073003203530054004D00330032002027
:10289000005600690072007400750061006C002031
:1028A0000043004F004D00200050006F0072007484
:1028B0000020002000000000400080000001000215
:1028C00010000000100000001000000010000000C8
:1028D0000100002000020100020000010040001081
:1028E000040000001000000008000000400000008C
:1028F0004000000020000000200000002000000038
:102900000100002000020100020000010040001050
:1029100000000200010004000400030003000300A3
:1029200000000D0009000000010008000E000C006E
:1029300006002800170006000700170028002800DE
:102940000040000000000200040000002000000021
:1029500004000000200000000002200000044000ED
:102960008029000800000020B00100004801000894
:10297000282A0008B0010020A00C00002827000829
:102980000124141A03531254124D1233022132132C
:10299000A1080C1C08E30D040B102D09149133C27F
:1029A0000112081A040713ED261408A5251B08CDEB
:1029B000081AE9041395241B087D101A65041A0DE2
:1029C000041AF9101A3D0841324029481A8D280985
:1029D00016781AA51C1304283308121A1608324355
:1029E0001A590832041A5D0832261A830829E62289
:1029F0002473201A299201302D01020304041009C6
:102A00000607080902040608BC100140045A080819
:102A10001A0C045A18049A14041A38041A44D729B0
:082A20002829105908000000EC
:04000005080000ED02
:00000001FF
